{
  "abi": [
    {
      "inputs": [],
      "stateMutability": "nonpayable",
      "type": "constructor"
    },
    {
      "anonymous": false,
      "inputs": [
        {
          "indexed": true,
          "internalType": "bytes32",
          "name": "node",
          "type": "bytes32"
        },
        {
          "indexed": false,
          "internalType": "address",
          "name": "a",
          "type": "address"
        }
      ],
      "name": "AddrChanged",
      "type": "event"
    },
    {
      "anonymous": false,
      "inputs": [
        {
          "indexed": true,
          "internalType": "address",
          "name": "previousOwner",
          "type": "address"
        },
        {
          "indexed": true,
          "internalType": "address",
          "name": "newOwner",
          "type": "address"
        }
      ],
      "name": "OwnershipTransferred",
      "type": "event"
    },
    {
      "anonymous": false,
      "inputs": [
        {
          "indexed": true,
          "internalType": "address",
          "name": "registrar",
          "type": "address"
        },
        {
          "indexed": true,
          "internalType": "uint256",
          "name": "token_id",
          "type": "uint256"
        },
        {
          "indexed": true,
          "internalType": "string",
          "name": "label",
          "type": "string"
        }
      ],
      "name": "RegisterSubdomain",
      "type": "event"
    },
    {
      "anonymous": false,
      "inputs": [
        {
          "indexed": true,
          "internalType": "bytes32",
          "name": "node",
          "type": "bytes32"
        },
        {
          "indexed": true,
          "internalType": "string",
          "name": "indexedKey",
          "type": "string"
        },
        {
          "indexed": false,
          "internalType": "string",
          "name": "key",
          "type": "string"
        }
      ],
      "name": "TextChanged",
      "type": "event"
    },
    {
      "inputs": [],
      "name": "ReverseResolver",
      "outputs": [
        {
          "internalType": "contract IReverseResolver",
          "name": "",
          "type": "address"
        }
      ],
      "stateMutability": "view",
      "type": "function"
    },
    {
      "inputs": [
        {
          "internalType": "bytes32",
          "name": "nodeID",
          "type": "bytes32"
        }
      ],
      "name": "addr",
      "outputs": [
        {
          "internalType": "address",
          "name": "",
          "type": "address"
        }
      ],
      "stateMutability": "view",
      "type": "function"
    },
    {
      "inputs": [
        {
          "internalType": "string",
          "name": "label",
          "type": "string"
        },
        {
          "internalType": "uint256",
          "name": "token_id",
          "type": "uint256"
        }
      ],
      "name": "claimSubdomain",
      "outputs": [],
      "stateMutability": "nonpayable",
      "type": "function"
    },
    {
      "inputs": [],
      "name": "domainHash",
      "outputs": [
        {
          "internalType": "bytes32",
          "name": "",
          "type": "bytes32"
        }
      ],
      "stateMutability": "view",
      "type": "function"
    },
    {
      "inputs": [],
      "name": "domainLabel",
      "outputs": [
        {
          "internalType": "string",
          "name": "",
          "type": "string"
        }
      ],
      "stateMutability": "view",
      "type": "function"
    },
    {
      "inputs": [
        {
          "internalType": "string",
          "name": "label",
          "type": "string"
        }
      ],
      "name": "domainMap",
      "outputs": [
        {
          "internalType": "bytes32",
          "name": "",
          "type": "bytes32"
        }
      ],
      "stateMutability": "view",
      "type": "function"
    },
    {
      "inputs": [
        {
          "internalType": "uint256[]",
          "name": "token_ids",
          "type": "uint256[]"
        }
      ],
      "name": "getTokensDomains",
      "outputs": [
        {
          "internalType": "string[]",
          "name": "",
          "type": "string[]"
        }
      ],
      "stateMutability": "view",
      "type": "function"
    },
    {
      "inputs": [
        {
          "internalType": "bytes32",
          "name": "",
          "type": "bytes32"
        }
      ],
      "name": "hashToDomainMap",
      "outputs": [
        {
          "internalType": "string",
          "name": "",
          "type": "string"
        }
      ],
      "stateMutability": "view",
      "type": "function"
    },
    {
      "inputs": [
        {
          "internalType": "bytes32",
          "name": "",
          "type": "bytes32"
        }
      ],
      "name": "hashToIdMap",
      "outputs": [
        {
          "internalType": "uint256",
          "name": "",
          "type": "uint256"
        }
      ],
      "stateMutability": "view",
      "type": "function"
    },
    {
      "inputs": [
        {
          "internalType": "bytes32",
          "name": "node",
          "type": "bytes32"
        }
      ],
      "name": "name",
      "outputs": [
        {
          "internalType": "string",
          "name": "",
          "type": "string"
        }
      ],
      "stateMutability": "view",
      "type": "function"
    },
    {
      "inputs": [],
      "name": "nft",
      "outputs": [
        {
          "internalType": "contract IERC721",
          "name": "",
          "type": "address"
        }
      ],
      "stateMutability": "view",
      "type": "function"
    },
    {
      "inputs": [],
      "name": "owner",
      "outputs": [
        {
          "internalType": "address",
          "name": "",
          "type": "address"
        }
      ],
      "stateMutability": "view",
      "type": "function"
    },
    {
      "inputs": [],
      "name": "renounceOwnership",
      "outputs": [],
      "stateMutability": "nonpayable",
      "type": "function"
    },
    {
      "inputs": [
        {
          "internalType": "uint256",
          "name": "token_id",
          "type": "uint256"
        }
      ],
      "name": "resetHash",
      "outputs": [],
      "stateMutability": "nonpayable",
      "type": "function"
    },
    {
      "inputs": [
        {
          "internalType": "string",
          "name": "_name",
          "type": "string"
        }
      ],
      "name": "setContractName",
      "outputs": [],
      "stateMutability": "nonpayable",
      "type": "function"
    },
    {
      "inputs": [
        {
          "internalType": "bytes32",
          "name": "node",
          "type": "bytes32"
        },
        {
          "internalType": "string",
          "name": "key",
          "type": "string"
        },
        {
          "internalType": "string",
          "name": "value",
          "type": "string"
        }
      ],
      "name": "setText",
      "outputs": [],
      "stateMutability": "nonpayable",
      "type": "function"
    },
    {
      "inputs": [
        {
          "internalType": "bytes4",
          "name": "interfaceID",
          "type": "bytes4"
        }
      ],
      "name": "supportsInterface",
      "outputs": [
        {
          "internalType": "bool",
          "name": "",
          "type": "bool"
        }
      ],
      "stateMutability": "pure",
      "type": "function"
    },
    {
      "inputs": [
        {
          "internalType": "bytes32",
          "name": "node",
          "type": "bytes32"
        },
        {
          "internalType": "string",
          "name": "key",
          "type": "string"
        }
      ],
      "name": "text",
      "outputs": [
        {
          "internalType": "string",
          "name": "",
          "type": "string"
        }
      ],
      "stateMutability": "view",
      "type": "function"
    },
    {
      "inputs": [
        {
          "internalType": "bytes32",
          "name": "",
          "type": "bytes32"
        },
        {
          "internalType": "string",
          "name": "",
          "type": "string"
        }
      ],
      "name": "texts",
      "outputs": [
        {
          "internalType": "string",
          "name": "",
          "type": "string"
        }
      ],
      "stateMutability": "view",
      "type": "function"
    },
    {
      "inputs": [
        {
          "internalType": "uint256",
          "name": "",
          "type": "uint256"
        }
      ],
      "name": "tokenHashmap",
      "outputs": [
        {
          "internalType": "bytes32",
          "name": "",
          "type": "bytes32"
        }
      ],
      "stateMutability": "view",
      "type": "function"
    },
    {
      "inputs": [
        {
          "internalType": "address",
          "name": "newOwner",
          "type": "address"
        }
      ],
      "name": "transferOwnership",
      "outputs": [],
      "stateMutability": "nonpayable",
      "type": "function"
    },
    {
      "inputs": [
        {
          "internalType": "uint256[]",
          "name": "_ids",
          "type": "uint256[]"
        }
      ],
      "name": "updateAddresses",
      "outputs": [],
      "stateMutability": "nonpayable",
      "type": "function"
    }
  ],
  "bytecode": {
    "object": "0x608060405234801561001057600080fd5b5061001a3361001f565b61006f565b600080546001600160a01b038381166001600160a01b0319831681178455604051919092169283917f8be0079c531659141344cd1fd0a4f28419497f9722a3daafe3b4186f6b6457e09190a35050565b611fc58061007e6000396000f3fe608060405234801561001057600080fd5b50600436106101425760003560e01c80638ecb9d66116100b8578063c074c3da1161007c578063c074c3da146102f2578063dfe86ac514610305578063ea5822c61461031a578063f2fde38b1461032d578063f33135ff14610340578063f5958ee81461035357600080fd5b80638ecb9d66146102575780639741cbff1461026a578063abcec0a214610298578063b9def38f146102b8578063bcbe0e3c146102cb57600080fd5b806347ccca021161010a57806347ccca02146101e257806359d1d43c146101fd578063610732fc14610210578063691f34311461022b578063715018a61461023e5780638da5cb5b1461024657600080fd5b806301ffc9a7146101475780630b5ee0061461016f57806310f13a8c146101845780633b3b57de14610197578063428cfb20146101c2575b600080fd5b61015a6101553660046116b8565b610373565b60405190151581526020015b60405180910390f35b61018261017d36600461172b565b6103e0565b005b61018261019236600461176d565b610457565b6101aa6101a53660046117e7565b610692565b6040516001600160a01b039091168152602001610166565b6101d56101d03660046117e7565b610748565b6040516101669190611858565b6101aa734b10701bfd7bfedc47d50562b76b436fbb5bdb3b81565b6101d561020b36600461186b565b6107e2565b6101aa73084b1c3c81545d370f3634392de611caabff814881565b6101d56102393660046117e7565b61095e565b6101826109e5565b6000546001600160a01b03166101aa565b6101826102653660046118b7565b610a55565b61028a6102783660046117e7565b60026020526000908152604090205481565b604051908152602001610166565b61028a6102a63660046117e7565b60036020526000908152604090205481565b6101826102c63660046117e7565b610e9c565b6101d5604051806040016040528060088152602001676c696c6e6f756e7360c01b81525081565b61028a61030036600461172b565b611096565b61028a600080516020611f7083398151915281565b6101d561032836600461194a565b61111e565b61018261033b3660046119fe565b611153565b61018261034e366004611a1b565b6111cc565b610366610361366004611a90565b611338565b6040516101669190611b36565b6000631d9dabef60e11b6001600160e01b0319831614806103a45750631674750f60e21b6001600160e01b03198316145b806103bf575063691f343160e01b6001600160e01b03198316145b806103da57506301ffc9a760e01b6001600160e01b03198316145b92915050565b6103e86113f1565b60405163c47f002760e01b815273084b1c3c81545d370f3634392de611caabff81489063c47f0027906104219085908590600401611b98565b600060405180830381600087803b15801561043b57600080fd5b505af115801561044f573d6000803e3d6000fd5b505050505050565b600085815260026020526040902054336104796000546001600160a01b031690565b6001600160a01b0316148061050a57506040516331a9108f60e11b8152600481018290523390734b10701bfd7bfedc47d50562b76b436fbb5bdb3b90636352211e90602401602060405180830381865afa1580156104db573d6000803e3d6000fd5b505050506040513d601f19601f820116820180604052508101906104ff9190611bc7565b6001600160a01b0316145b61052f5760405162461bcd60e51b815260040161052690611be4565b60405180910390fd5b600086815260026020908152604080832054808452600390925282205490910361056b5760405162461bcd60e51b815260040161052690611c0c565b7fd1f86c93d831119ad98fe983e643a7431e4ac992e3ead6e3007f4dd1adf66343868660405160200161059f929190611c35565b60405160208183030381529060405280519060200120036105f65760405162461bcd60e51b815260206004820152601160248201527031b0b73737ba1039b2ba1030bb30ba30b960791b6044820152606401610526565b8383600160008a8152602001908152602001600020888860405161061b929190611c35565b90815260200160405180910390209182610636929190611cca565b508585604051610647929190611c35565b6040518091039020877fd8c9334b1a9c2f9da342a0a2b32629c1a229b6445dad78947f674b44444a75508888604051610681929190611b98565b60405180910390a350505050505050565b600081815260026020908152604080832054808452600390925282205482036106cd5760405162461bcd60e51b815260040161052690611c0c565b6040516331a9108f60e11b815260048101829052734b10701bfd7bfedc47d50562b76b436fbb5bdb3b90636352211e90602401602060405180830381865afa15801561071d573d6000803e3d6000fd5b505050506040513d601f19601f820116820180604052508101906107419190611bc7565b9392505050565b6004602052600090815260409020805461076190611c45565b80601f016020809104026020016040519081016040528092919081815260200182805461078d90611c45565b80156107da5780601f106107af576101008083540402835291602001916107da565b820191906000526020600020905b8154815290600101906020018083116107bd57829003601f168201915b505050505081565b60008381526002602090815260408083205480845260039092528220546060920361081f5760405162461bcd60e51b815260040161052690611c0c565b7fd1f86c93d831119ad98fe983e643a7431e4ac992e3ead6e3007f4dd1adf663438484604051602001610853929190611c35565b604051602081830303815290604052805190602001200361089e576108778161144b565b6040516020016108879190611d8b565b604051602081830303815290604052915050610741565b6000858152600160205260409081902090516108bd9086908690611c35565b908152602001604051809103902080546108d690611c45565b80601f016020809104026020016040519081016040528092919081815260200182805461090290611c45565b801561094f5780601f106109245761010080835404028352916020019161094f565b820191906000526020600020905b81548152906001019060200180831161093257829003601f168201915b50505050509150509392505050565b600081815260046020526040902080546060919061097b90611c45565b1590506109d1576000828152600460209081526040918290208251808401845260088152676c696c6e6f756e7360c01b8184015292516109bd93919201611df6565b6040516020818303038152906040526103da565b505060408051602081019091526000815290565b6109ed6113f1565b60405162461bcd60e51b815260206004820152603560248201527f454e5320697320726573706f6e736962696c6974792e20596f752063616e6e6f6044820152743a103932b737bab731b29037bbb732b939b434b81760591b6064820152608401610526565b565b8033610a696000546001600160a01b031690565b6001600160a01b03161480610afa57506040516331a9108f60e11b8152600481018290523390734b10701bfd7bfedc47d50562b76b436fbb5bdb3b90636352211e90602401602060405180830381865afa158015610acb573d6000803e3d6000fd5b505050506040513d601f19601f82011682018060405250810190610aef9190611bc7565b6001600160a01b0316145b610b165760405162461bcd60e51b815260040161052690611be4565b60008281526003602052604090205415610b725760405162461bcd60e51b815260206004820152601a60248201527f546f6b656e2068617320616c7265616479206265656e207365740000000000006044820152606401610526565b60008484604051602001610b87929190611c35565b60408051808303601f190181528282528051602091820120600080516020611f7083398151915291840191909152908201819052915060009060600160408051808303601f19018152908290528051602090910120631ef3fca760e31b82526004820181905291506e0c2e074ec69a0dfb2997ba6c7d2e1e9063f79fe53890602401602060405180830381865afa158015610c26573d6000803e3d6000fd5b505050506040513d601f19601f82011682018060405250810190610c4a9190611e9b565b1580610c6057506000546001600160a01b031633145b610cac5760405162461bcd60e51b815260206004820152601960248201527f7375622d646f6d61696e20616c726561647920657869737473000000000000006044820152606401610526565b6e0c2e074ec69a0dfb2997ba6c7d2e1e635ef2c7f0600080516020611f7083398151915284610ce36000546001600160a01b031690565b6040516001600160e01b031960e086901b168152600481019390935260248301919091526001600160a01b031660448201523060648201526000608482015260a401600060405180830381600087803b158015610d3f57600080fd5b505af1158015610d53573d6000803e3d6000fd5b505050600082815260026020908152604080832088905587835260038252808320859055848352600490915290209050610d8e868883611cca565b506040516331a9108f60e11b815260048101859052600090734b10701bfd7bfedc47d50562b76b436fbb5bdb3b90636352211e90602401602060405180830381865afa158015610de2573d6000803e3d6000fd5b505050506040513d601f19601f82011682018060405250810190610e069190611bc7565b90508686604051610e18929190611c35565b6040519081900381209086906001600160a01b038416907fa16b10a6d8a8b7e20fab669fb2b5acd39c210216e639cdd3190a0c1fe2b7cc7b90600090a46040516001600160a01b038216815282907f52d7d861f09ab3d26239d492e8968629f95e9e318cf0b73bfddc441522a15fd29060200160405180910390a250505050505050565b8033610eb06000546001600160a01b031690565b6001600160a01b03161480610f4157506040516331a9108f60e11b8152600481018290523390734b10701bfd7bfedc47d50562b76b436fbb5bdb3b90636352211e90602401602060405180830381865afa158015610f12573d6000803e3d6000fd5b505050506040513d601f19601f82011682018060405250810190610f369190611bc7565b6001600160a01b0316145b610f5d5760405162461bcd60e51b815260040161052690611be4565b60008281526003602052604090819020549051631ef3fca760e31b8152600481018290526e0c2e074ec69a0dfb2997ba6c7d2e1e9063f79fe53890602401602060405180830381865afa158015610fb8573d6000803e3d6000fd5b505050506040513d601f19601f82011682018060405250810190610fdc9190611e9b565b6110285760405162461bcd60e51b815260206004820152601960248201527f5375622d646f6d61696e20646f6573206e6f74206578697374000000000000006044820152606401610526565b600081815260046020526040812061103f9161166a565b6000818152600260209081526040808320839055858352600382528083208390555191825282917f52d7d861f09ab3d26239d492e8968629f95e9e318cf0b73bfddc441522a15fd2910160405180910390a2505050565b60008083836040516020016110ac929190611c35565b60408051601f198184030181528282528051602091820120600080516020611f708339815191528285015283830181905282518085038401815260609094018352835193820193909320600081815260029092529190205491925090611113576000611115565b805b95945050505050565b600160209081526000928352604090922081518083018401805192815290840192909301919091209152805461076190611c45565b61115b6113f1565b6001600160a01b0381166111c05760405162461bcd60e51b815260206004820152602660248201527f4f776e61626c653a206e6577206f776e657220697320746865207a65726f206160448201526564647265737360d01b6064820152608401610526565b6111c981611554565b50565b8060005b81811015611332576000600360008686858181106111f0576111f0611ebd565b905060200201358152602001908152602001600020549050806000801b0361125a5760405162461bcd60e51b815260206004820152601a60248201527f6e6f20737562646f6d61696e206f6e207468697320746f6b656e0000000000006044820152606401610526565b807f52d7d861f09ab3d26239d492e8968629f95e9e318cf0b73bfddc441522a15fd2734b10701bfd7bfedc47d50562b76b436fbb5bdb3b636352211e8888878181106112a8576112a8611ebd565b905060200201356040518263ffffffff1660e01b81526004016112cd91815260200190565b602060405180830381865afa1580156112ea573d6000803e3d6000fd5b505050506040513d601f19601f8201168201806040525081019061130e9190611bc7565b6040516001600160a01b03909116815260200160405180910390a2506001016111d0565b50505050565b60606000825167ffffffffffffffff81111561135657611356611903565b60405190808252806020026020018201604052801561138957816020015b60608152602001906001900390816113745790505b50905060005b83518110156113ea576113ba8482815181106113ad576113ad611ebd565b60200260200101516115a4565b8282815181106113cc576113cc611ebd565b602002602001018190525080806113e290611ee9565b91505061138f565b5092915050565b6000546001600160a01b03163314610a535760405162461bcd60e51b815260206004820181905260248201527f4f776e61626c653a2063616c6c6572206973206e6f7420746865206f776e65726044820152606401610526565b6060816000036114725750506040805180820190915260018152600360fc1b602082015290565b8160005b811561149c578061148681611ee9565b91506114959050600a83611f18565b9150611476565b60008167ffffffffffffffff8111156114b7576114b7611903565b6040519080825280601f01601f1916602001820160405280156114e1576020820181803683370190505b5090505b841561154c576114f6600183611f2c565b9150611503600a86611f43565b61150e906030611f57565b60f81b81838151811061152357611523611ebd565b60200101906001600160f81b031916908160001a905350611545600a86611f18565b94506114e5565b949350505050565b600080546001600160a01b038381166001600160a01b0319831681178455604051919092169283917f8be0079c531659141344cd1fd0a4f28419497f9722a3daafe3b4186f6b6457e09190a35050565b6000818152600360205260408120546060910361160f5760405162461bcd60e51b815260206004820152602360248201527f546f6b656e20646f6573206e6f74206861766520616e20454e532072656769736044820152623a32b960e91b6064820152608401610526565b600082815260036020908152604080832054835260048252918290208251808401845260088152676c696c6e6f756e7360c01b81840152925161165493919201611df6565b6040516020818303038152906040529050919050565b50805461167690611c45565b6000825580601f10611686575050565b601f0160209004906000526020600020908101906111c991905b808211156116b457600081556001016116a0565b5090565b6000602082840312156116ca57600080fd5b81356001600160e01b03198116811461074157600080fd5b60008083601f8401126116f457600080fd5b50813567ffffffffffffffff81111561170c57600080fd5b60208301915083602082850101111561172457600080fd5b9250929050565b6000806020838503121561173e57600080fd5b823567ffffffffffffffff81111561175557600080fd5b611761858286016116e2565b90969095509350505050565b60008060008060006060868803121561178557600080fd5b85359450602086013567ffffffffffffffff808211156117a457600080fd5b6117b089838a016116e2565b909650945060408801359150808211156117c957600080fd5b506117d6888289016116e2565b969995985093965092949392505050565b6000602082840312156117f957600080fd5b5035919050565b60005b8381101561181b578181015183820152602001611803565b838111156113325750506000910152565b60008151808452611844816020860160208601611800565b601f01601f19169290920160200192915050565b602081526000610741602083018461182c565b60008060006040848603121561188057600080fd5b83359250602084013567ffffffffffffffff81111561189e57600080fd5b6118aa868287016116e2565b9497909650939450505050565b6000806000604084860312156118cc57600080fd5b833567ffffffffffffffff8111156118e357600080fd5b6118ef868287016116e2565b909790965060209590950135949350505050565b634e487b7160e01b600052604160045260246000fd5b604051601f8201601f1916810167ffffffffffffffff8111828210171561194257611942611903565b604052919050565b6000806040838503121561195d57600080fd5b8235915060208084013567ffffffffffffffff8082111561197d57600080fd5b818601915086601f83011261199157600080fd5b8135818111156119a3576119a3611903565b6119b5601f8201601f19168501611919565b915080825287848285010111156119cb57600080fd5b80848401858401376000848284010152508093505050509250929050565b6001600160a01b03811681146111c957600080fd5b600060208284031215611a1057600080fd5b8135610741816119e9565b60008060208385031215611a2e57600080fd5b823567ffffffffffffffff80821115611a4657600080fd5b818501915085601f830112611a5a57600080fd5b813581811115611a6957600080fd5b8660208260051b8501011115611a7e57600080fd5b60209290920196919550909350505050565b60006020808385031215611aa357600080fd5b823567ffffffffffffffff80821115611abb57600080fd5b818501915085601f830112611acf57600080fd5b813581811115611ae157611ae1611903565b8060051b9150611af2848301611919565b8181529183018401918481019088841115611b0c57600080fd5b938501935b83851015611b2a57843582529385019390850190611b11565b98975050505050505050565b6000602080830181845280855180835260408601915060408160051b870101925083870160005b82811015611b8b57603f19888603018452611b7985835161182c565b94509285019290850190600101611b5d565b5092979650505050505050565b60208152816020820152818360408301376000818301604090810191909152601f909201601f19160101919050565b600060208284031215611bd957600080fd5b8151610741816119e9565b6020808252600e908201526d139bdd08185d5d1a1bdc9a5cd95960921b604082015260600190565b6020808252600f908201526e496e76616c6964206164647265737360881b604082015260600190565b8183823760009101908152919050565b600181811c90821680611c5957607f821691505b602082108103611c7957634e487b7160e01b600052602260045260246000fd5b50919050565b601f821115611cc557600081815260208120601f850160051c81016020861015611ca65750805b601f850160051c820191505b8181101561044f57828155600101611cb2565b505050565b67ffffffffffffffff831115611ce257611ce2611903565b611cf683611cf08354611c45565b83611c7f565b6000601f841160018114611d2a5760008515611d125750838201355b600019600387901b1c1916600186901b178355611d84565b600083815260209020601f19861690835b82811015611d5b5786850135825560209485019460019092019101611d3b565b5086821015611d785760001960f88860031b161c19848701351681555b505060018560011b0183555b5050505050565b7f6569703135353a312f6572633732313a3078346231303730314266643742464581527f64633437643530353632623736623433366662423542644233422f0000000000602082015260008251611de981603b850160208701611800565b91909101603b0192915050565b6000808454611e0481611c45565b60018281168015611e1c5760018114611e3157611e60565b60ff1984168752821515830287019450611e60565b8860005260208060002060005b85811015611e575781548a820152908401908201611e3e565b50505082870194505b50601760f91b845286519250611e7c8382860160208a01611800565b6305ccae8d60e31b939092019182019290925260050195945050505050565b600060208284031215611ead57600080fd5b8151801515811461074157600080fd5b634e487b7160e01b600052603260045260246000fd5b634e487b7160e01b600052601160045260246000fd5b600060018201611efb57611efb611ed3565b5060010190565b634e487b7160e01b600052601260045260246000fd5b600082611f2757611f27611f02565b500490565b600082821015611f3e57611f3e611ed3565b500390565b600082611f5257611f52611f02565b500690565b60008219821115611f6a57611f6a611ed3565b50019056fe524060b540a9ca20b59a94f7b32d64ebdbeedc42dfdc7aac115003633593b492a2646970667358221220a3b89c3090c56bfe4d542f7518955c8726a58ae60b5c17e709a69aa2f191f4f464736f6c634300080f0033",
    "linkReferences": {}
  },
  "methodIdentifiers": {
    "ReverseResolver()": "610732fc",
    "addr(bytes32)": "3b3b57de",
    "claimSubdomain(string,uint256)": "8ecb9d66",
    "domainHash()": "dfe86ac5",
    "domainLabel()": "bcbe0e3c",
    "domainMap(string)": "c074c3da",
    "getTokensDomains(uint256[])": "f5958ee8",
    "hashToDomainMap(bytes32)": "428cfb20",
    "hashToIdMap(bytes32)": "9741cbff",
    "name(bytes32)": "691f3431",
    "nft()": "47ccca02",
    "owner()": "8da5cb5b",
    "renounceOwnership()": "715018a6",
    "resetHash(uint256)": "b9def38f",
    "setContractName(string)": "0b5ee006",
    "setText(bytes32,string,string)": "10f13a8c",
    "supportsInterface(bytes4)": "01ffc9a7",
    "text(bytes32,string)": "59d1d43c",
    "texts(bytes32,string)": "ea5822c6",
    "tokenHashmap(uint256)": "abcec0a2",
    "transferOwnership(address)": "f2fde38b",
    "updateAddresses(uint256[])": "f33135ff"
  },
  "id": 6
}