{
  "abi": [
    {
      "inputs": [],
      "stateMutability": "nonpayable",
      "type": "constructor"
    },
    {
      "anonymous": false,
      "inputs": [
        {
          "indexed": true,
          "internalType": "bytes32",
          "name": "node",
          "type": "bytes32"
        },
        {
          "indexed": false,
          "internalType": "address",
          "name": "a",
          "type": "address"
        }
      ],
      "name": "AddrChanged",
      "type": "event"
    },
    {
      "anonymous": false,
      "inputs": [
        {
          "indexed": true,
          "internalType": "address",
          "name": "previousOwner",
          "type": "address"
        },
        {
          "indexed": true,
          "internalType": "address",
          "name": "newOwner",
          "type": "address"
        }
      ],
      "name": "OwnershipTransferred",
      "type": "event"
    },
    {
      "anonymous": false,
      "inputs": [
        {
          "indexed": true,
          "internalType": "address",
          "name": "registrar",
          "type": "address"
        },
        {
          "indexed": true,
          "internalType": "uint256",
          "name": "token_id",
          "type": "uint256"
        },
        {
          "indexed": true,
          "internalType": "string",
          "name": "label",
          "type": "string"
        }
      ],
      "name": "RegisterSubdomain",
      "type": "event"
    },
    {
      "anonymous": false,
      "inputs": [
        {
          "indexed": true,
          "internalType": "bytes32",
          "name": "node",
          "type": "bytes32"
        },
        {
          "indexed": true,
          "internalType": "string",
          "name": "indexedKey",
          "type": "string"
        },
        {
          "indexed": false,
          "internalType": "string",
          "name": "key",
          "type": "string"
        }
      ],
      "name": "TextChanged",
      "type": "event"
    },
    {
      "inputs": [
        {
          "internalType": "bytes32",
          "name": "nodeID",
          "type": "bytes32"
        }
      ],
      "name": "addr",
      "outputs": [
        {
          "internalType": "address",
          "name": "",
          "type": "address"
        }
      ],
      "stateMutability": "view",
      "type": "function"
    },
    {
      "inputs": [],
      "name": "domainHash",
      "outputs": [
        {
          "internalType": "bytes32",
          "name": "",
          "type": "bytes32"
        }
      ],
      "stateMutability": "view",
      "type": "function"
    },
    {
      "inputs": [],
      "name": "domainLabel",
      "outputs": [
        {
          "internalType": "string",
          "name": "",
          "type": "string"
        }
      ],
      "stateMutability": "view",
      "type": "function"
    },
    {
      "inputs": [
        {
          "internalType": "string",
          "name": "label",
          "type": "string"
        }
      ],
      "name": "domainMap",
      "outputs": [
        {
          "internalType": "bytes32",
          "name": "",
          "type": "bytes32"
        }
      ],
      "stateMutability": "view",
      "type": "function"
    },
    {
      "inputs": [
        {
          "internalType": "uint256[]",
          "name": "token_ids",
          "type": "uint256[]"
        }
      ],
      "name": "getTokensDomains",
      "outputs": [
        {
          "internalType": "string[]",
          "name": "",
          "type": "string[]"
        }
      ],
      "stateMutability": "view",
      "type": "function"
    },
    {
      "inputs": [
        {
          "internalType": "bytes32",
          "name": "",
          "type": "bytes32"
        }
      ],
      "name": "hashToDomainMap",
      "outputs": [
        {
          "internalType": "string",
          "name": "",
          "type": "string"
        }
      ],
      "stateMutability": "view",
      "type": "function"
    },
    {
      "inputs": [
        {
          "internalType": "bytes32",
          "name": "",
          "type": "bytes32"
        }
      ],
      "name": "hashToIdMap",
      "outputs": [
        {
          "internalType": "uint256",
          "name": "",
          "type": "uint256"
        }
      ],
      "stateMutability": "view",
      "type": "function"
    },
    {
      "inputs": [
        {
          "internalType": "bytes32",
          "name": "node",
          "type": "bytes32"
        }
      ],
      "name": "name",
      "outputs": [
        {
          "internalType": "string",
          "name": "",
          "type": "string"
        }
      ],
      "stateMutability": "view",
      "type": "function"
    },
    {
      "inputs": [
        {
          "internalType": "address",
          "name": "",
          "type": "address"
        }
      ],
      "name": "nextRegisterTimestamp",
      "outputs": [
        {
          "internalType": "uint256",
          "name": "",
          "type": "uint256"
        }
      ],
      "stateMutability": "view",
      "type": "function"
    },
    {
      "inputs": [],
      "name": "nft",
      "outputs": [
        {
          "internalType": "contract IERC721",
          "name": "",
          "type": "address"
        }
      ],
      "stateMutability": "view",
      "type": "function"
    },
    {
      "inputs": [],
      "name": "owner",
      "outputs": [
        {
          "internalType": "address",
          "name": "",
          "type": "address"
        }
      ],
      "stateMutability": "view",
      "type": "function"
    },
    {
      "inputs": [],
      "name": "renounceOwnership",
      "outputs": [],
      "stateMutability": "nonpayable",
      "type": "function"
    },
    {
      "inputs": [
        {
          "internalType": "address",
          "name": "addy",
          "type": "address"
        }
      ],
      "name": "resetAddressForClaim",
      "outputs": [],
      "stateMutability": "nonpayable",
      "type": "function"
    },
    {
      "inputs": [
        {
          "internalType": "uint256",
          "name": "token_id",
          "type": "uint256"
        }
      ],
      "name": "resetHash",
      "outputs": [],
      "stateMutability": "nonpayable",
      "type": "function"
    },
    {
      "inputs": [],
      "name": "reset_period",
      "outputs": [
        {
          "internalType": "uint256",
          "name": "",
          "type": "uint256"
        }
      ],
      "stateMutability": "view",
      "type": "function"
    },
    {
      "inputs": [
        {
          "internalType": "string",
          "name": "label",
          "type": "string"
        },
        {
          "internalType": "uint256",
          "name": "token_id",
          "type": "uint256"
        }
      ],
      "name": "setDomain",
      "outputs": [],
      "stateMutability": "nonpayable",
      "type": "function"
    },
    {
      "inputs": [
        {
          "internalType": "bytes32",
          "name": "node",
          "type": "bytes32"
        },
        {
          "internalType": "string",
          "name": "key",
          "type": "string"
        },
        {
          "internalType": "string",
          "name": "value",
          "type": "string"
        }
      ],
      "name": "setText",
      "outputs": [],
      "stateMutability": "nonpayable",
      "type": "function"
    },
    {
      "inputs": [
        {
          "internalType": "bytes4",
          "name": "interfaceID",
          "type": "bytes4"
        }
      ],
      "name": "supportsInterface",
      "outputs": [
        {
          "internalType": "bool",
          "name": "",
          "type": "bool"
        }
      ],
      "stateMutability": "pure",
      "type": "function"
    },
    {
      "inputs": [
        {
          "internalType": "bytes32",
          "name": "node",
          "type": "bytes32"
        },
        {
          "internalType": "string",
          "name": "key",
          "type": "string"
        }
      ],
      "name": "text",
      "outputs": [
        {
          "internalType": "string",
          "name": "",
          "type": "string"
        }
      ],
      "stateMutability": "view",
      "type": "function"
    },
    {
      "inputs": [
        {
          "internalType": "bytes32",
          "name": "",
          "type": "bytes32"
        },
        {
          "internalType": "string",
          "name": "",
          "type": "string"
        }
      ],
      "name": "texts",
      "outputs": [
        {
          "internalType": "string",
          "name": "",
          "type": "string"
        }
      ],
      "stateMutability": "view",
      "type": "function"
    },
    {
      "inputs": [
        {
          "internalType": "uint256",
          "name": "",
          "type": "uint256"
        }
      ],
      "name": "tokenHashmap",
      "outputs": [
        {
          "internalType": "bytes32",
          "name": "",
          "type": "bytes32"
        }
      ],
      "stateMutability": "view",
      "type": "function"
    },
    {
      "inputs": [
        {
          "internalType": "address",
          "name": "newOwner",
          "type": "address"
        }
      ],
      "name": "transferOwnership",
      "outputs": [],
      "stateMutability": "nonpayable",
      "type": "function"
    },
    {
      "inputs": [
        {
          "internalType": "uint256[]",
          "name": "_ids",
          "type": "uint256[]"
        }
      ],
      "name": "updateAddresses",
      "outputs": [],
      "stateMutability": "nonpayable",
      "type": "function"
    },
    {
      "inputs": [
        {
          "internalType": "uint256",
          "name": "time",
          "type": "uint256"
        }
      ],
      "name": "updateResetPeriod",
      "outputs": [],
      "stateMutability": "nonpayable",
      "type": "function"
    }
  ],
  "bytecode": {
    "object": "0x608060405261070860065534801561001657600080fd5b5061002033610025565b610075565b600080546001600160a01b038381166001600160a01b0319831681178455604051919092169283917f8be0079c531659141344cd1fd0a4f28419497f9722a3daafe3b4186f6b6457e09190a35050565b61210d806100846000396000f3fe608060405234801561001057600080fd5b50600436106101585760003560e01c8063a449329c116100c3578063df46d7a61161007c578063df46d7a614610329578063dfe86ac51461033c578063ea5822c614610351578063f2fde38b14610364578063f33135ff14610377578063f5958ee81461038a57600080fd5b8063a449329c146102a0578063abcec0a2146102a9578063b9def38f146102c9578063bcbe0e3c146102dc578063c074c3da14610303578063d890582f1461031657600080fd5b806347ccca021161011557806347ccca021461022657806359d1d43c14610241578063691f343114610254578063715018a6146102675780638da5cb5b1461026f5780639741cbff1461028057600080fd5b80630119b6261461015d57806301660e581461017257806301ffc9a7146101a557806310f13a8c146101c85780633b3b57de146101db578063428cfb2014610206575b600080fd5b61017061016b366004611759565b6103aa565b005b610192610180366004611759565b60026020526000908152604090205481565b6040519081526020015b60405180910390f35b6101b86101b3366004611776565b6103cc565b604051901515815260200161019c565b6101706101d63660046117e8565b610439565b6101ee6101e9366004611861565b61067f565b6040516001600160a01b03909116815260200161019c565b610219610214366004611861565b610741565b60405161019c91906118d6565b6101ee7347e9ed80bdc66438b71132bd9daa2c4d99716b4d81565b61021961024f3660046118e9565b6107db565b610219610262366004611861565b610964565b6101706109de565b6000546001600160a01b03166101ee565b61019261028e366004611861565b60036020526000908152604090205481565b61019260065481565b6101926102b7366004611861565b60046020526000908152604090205481565b6101706102d7366004611861565b610a4e565b610219604051806040016040528060088152602001676c696c6e6f756e7360c01b81525081565b610192610311366004611934565b610c6f565b610170610324366004611975565b610cf7565b610170610337366004611861565b6111ea565b6101926000805160206120b883398151915281565b61021961035f366004611a06565b6111f7565b610170610372366004611759565b61122c565b610170610385366004611aa4565b6112a5565b61039d610398366004611b18565b611414565b60405161019c9190611bbd565b6103b26114cc565b6001600160a01b0316600090815260026020526040812055565b6000631d9dabef60e11b6001600160e01b0319831614806103fd5750631674750f60e21b6001600160e01b03198316145b80610418575063691f343160e01b6001600160e01b03198316145b8061043357506301ffc9a760e01b6001600160e01b03198316145b92915050565b6000858152600360205260409020543361045b6000546001600160a01b031690565b6001600160a01b031614806104ec57506040516331a9108f60e11b81526004810182905233907347e9ed80bdc66438b71132bd9daa2c4d99716b4d90636352211e90602401602060405180830381865afa1580156104bd573d6000803e3d6000fd5b505050506040513d601f19601f820116820180604052508101906104e19190611c1f565b6001600160a01b0316145b6105115760405162461bcd60e51b815260040161050890611c3c565b60405180910390fd5b600086815260036020526040902054801580159061053c575060008181526004602052604090205415155b6105585760405162461bcd60e51b815260040161050890611c64565b7fd1f86c93d831119ad98fe983e643a7431e4ac992e3ead6e3007f4dd1adf66343868660405160200161058c929190611c8d565b60405160208183030381529060405280519060200120036105e35760405162461bcd60e51b815260206004820152601160248201527031b0b73737ba1039b2ba1030bb30ba30b960791b6044820152606401610508565b8383600160008a81526020019081526020016000208888604051610608929190611c8d565b90815260200160405180910390209182610623929190611d25565b508585604051610634929190611c8d565b6040518091039020877fd8c9334b1a9c2f9da342a0a2b32629c1a229b6445dad78947f674b44444a7550888860405161066e929190611de5565b60405180910390a350505050505050565b60008181526003602052604081205480158015906106aa575060008181526004602052604090205415155b6106c65760405162461bcd60e51b815260040161050890611c64565b6040516331a9108f60e11b8152600481018290527347e9ed80bdc66438b71132bd9daa2c4d99716b4d90636352211e90602401602060405180830381865afa158015610716573d6000803e3d6000fd5b505050506040513d601f19601f8201168201806040525081019061073a9190611c1f565b9392505050565b6005602052600090815260409020805461075a90611c9d565b80601f016020809104026020016040519081016040528092919081815260200182805461078690611c9d565b80156107d35780601f106107a8576101008083540402835291602001916107d3565b820191906000526020600020905b8154815290600101906020018083116107b657829003601f168201915b505050505081565b6000838152600360205260409020546060908015801590610809575060008181526004602052604090205415155b6108255760405162461bcd60e51b815260040161050890611c64565b7fd1f86c93d831119ad98fe983e643a7431e4ac992e3ead6e3007f4dd1adf663438484604051602001610859929190611c8d565b60405160208183030381529060405280519060200120036108a45761087d81611526565b60405160200161088d9190611e14565b60405160208183030381529060405291505061073a565b6000858152600160205260409081902090516108c39086908690611c8d565b908152602001604051809103902080546108dc90611c9d565b80601f016020809104026020016040519081016040528092919081815260200182805461090890611c9d565b80156109555780601f1061092a57610100808354040283529160200191610955565b820191906000526020600020905b81548152906001019060200180831161093857829003601f168201915b50505050509150509392505050565b600081815260036020526040902054606090156109ca576000828152600560209081526040918290208251808401845260088152676c696c6e6f756e7360c01b8184015292516109b693919201611e7f565b604051602081830303815290604052610433565b505060408051602081019091526000815290565b6109e66114cc565b60405162461bcd60e51b815260206004820152603560248201527f454e5320697320726573706f6e736962696c6974792e20596f752063616e6e6f6044820152743a103932b737bab731b29037bbb732b939b434b81760591b6064820152608401610508565b565b8033610a626000546001600160a01b031690565b6001600160a01b03161480610af357506040516331a9108f60e11b81526004810182905233907347e9ed80bdc66438b71132bd9daa2c4d99716b4d90636352211e90602401602060405180830381865afa158015610ac4573d6000803e3d6000fd5b505050506040513d601f19601f82011682018060405250810190610ae89190611c1f565b6001600160a01b0316145b610b0f5760405162461bcd60e51b815260040161050890611c3c565b600082815260046020819052604091829020549151631ef3fca760e31b81529081018290526e0c2e074ec69a0dfb2997ba6c7d2e1e9063f79fe53890602401602060405180830381865afa158015610b6b573d6000803e3d6000fd5b505050506040513d601f19601f82011682018060405250810190610b8f9190611f24565b610bdb5760405162461bcd60e51b815260206004820152601960248201527f5375622d646f6d61696e20646f6573206e6f74206578697374000000000000006044820152606401610508565b6040805160208082018352600080835284815260059091529190912090610c029082611f46565b50600081815260036020908152604080832083905585835260048252808320839055338352600290915290205442108015610c4857506000546001600160a01b03163314155b15610c6a57610c594261070861201b565b336000908152600260205260409020555b505050565b6000808383604051602001610c85929190611c8d565b60408051601f1981840301815282825280516020918201206000805160206120b88339815191528285015283830181905282518085038401815260609094018352835193820193909320600081815260039092529190205491925090610cec576000610cee565b805b95945050505050565b8033610d0b6000546001600160a01b031690565b6001600160a01b03161480610d9c57506040516331a9108f60e11b81526004810182905233907347e9ed80bdc66438b71132bd9daa2c4d99716b4d90636352211e90602401602060405180830381865afa158015610d6d573d6000803e3d6000fd5b505050506040513d601f19601f82011682018060405250810190610d919190611c1f565b6001600160a01b0316145b610db85760405162461bcd60e51b815260040161050890611c3c565b60008281526004602052604090205415610e145760405162461bcd60e51b815260206004820152601a60248201527f546f6b656e2068617320616c7265616479206265656e207365740000000000006044820152606401610508565b336000908152600260205260409020544211610e815760405162461bcd60e51b815260206004820152602660248201527f57616c6c6574206d7573742077616974206d6f72652074696d6520746f20726560448201526533b4b9ba32b960d11b6064820152608401610508565b60008484604051602001610e96929190611c8d565b60408051808303601f1901815282825280516020918201206000805160206120b883398151915291840191909152908201819052915060009060600160408051808303601f19018152908290528051602090910120631ef3fca760e31b82526004820181905291506e0c2e074ec69a0dfb2997ba6c7d2e1e9063f79fe53890602401602060405180830381865afa158015610f35573d6000803e3d6000fd5b505050506040513d601f19601f82011682018060405250810190610f599190611f24565b1580610f6f57506000546001600160a01b031633145b610fbb5760405162461bcd60e51b815260206004820152601960248201527f7375622d646f6d61696e20616c726561647920657869737473000000000000006044820152606401610508565b6e0c2e074ec69a0dfb2997ba6c7d2e1e635ef2c7f06000805160206120b883398151915284610ff26000546001600160a01b031690565b6040516001600160e01b031960e086901b168152600481019390935260248301919091526001600160a01b031660448201523060648201526000608482015260a401600060405180830381600087803b15801561104e57600080fd5b505af1158015611062573d6000803e3d6000fd5b50505060008281526003602090815260408083208890558783526004825280832085905584835260059091529020905061109d868883611d25565b50336110b16000546001600160a01b031690565b6001600160a01b0316146110dd576006546110cc904261201b565b336000908152600260205260409020555b6040516331a9108f60e11b8152600481018590526000907347e9ed80bdc66438b71132bd9daa2c4d99716b4d90636352211e90602401602060405180830381865afa158015611130573d6000803e3d6000fd5b505050506040513d601f19601f820116820180604052508101906111549190611c1f565b90508686604051611166929190611c8d565b6040519081900381209086906001600160a01b038416907fa16b10a6d8a8b7e20fab669fb2b5acd39c210216e639cdd3190a0c1fe2b7cc7b90600090a46040516001600160a01b038216815282907f52d7d861f09ab3d26239d492e8968629f95e9e318cf0b73bfddc441522a15fd29060200160405180910390a250505050505050565b6111f26114cc565b600655565b600160209081526000928352604090922081518083018401805192815290840192909301919091209152805461075a90611c9d565b6112346114cc565b6001600160a01b0381166112995760405162461bcd60e51b815260206004820152602660248201527f4f776e61626c653a206e6577206f776e657220697320746865207a65726f206160448201526564647265737360d01b6064820152608401610508565b6112a28161162e565b50565b60005b81811015610c6a576000600460008585858181106112c8576112c8612033565b905060200201358152602001908152602001600020549050806000801b036113325760405162461bcd60e51b815260206004820152601a60248201527f6e6f20737562646f6d61696e206f6e207468697320746f6b656e0000000000006044820152606401610508565b807f52d7d861f09ab3d26239d492e8968629f95e9e318cf0b73bfddc441522a15fd27347e9ed80bdc66438b71132bd9daa2c4d99716b4d636352211e87878781811061138057611380612033565b905060200201356040518263ffffffff1660e01b81526004016113a591815260200190565b602060405180830381865afa1580156113c2573d6000803e3d6000fd5b505050506040513d601f19601f820116820180604052508101906113e69190611c1f565b6040516001600160a01b03909116815260200160405180910390a2508061140c81612049565b9150506112a8565b6060600082516001600160401b03811115611431576114316119c0565b60405190808252806020026020018201604052801561146457816020015b606081526020019060019003908161144f5790505b50905060005b83518110156114c55761149584828151811061148857611488612033565b602002602001015161167e565b8282815181106114a7576114a7612033565b602002602001018190525080806114bd90612049565b91505061146a565b5092915050565b6000546001600160a01b03163314610a4c5760405162461bcd60e51b815260206004820181905260248201527f4f776e61626c653a2063616c6c6572206973206e6f7420746865206f776e65726044820152606401610508565b60608160000361154d5750506040805180820190915260018152600360fc1b602082015290565b8160005b8115611577578061156181612049565b91506115709050600a83612078565b9150611551565b6000816001600160401b03811115611591576115916119c0565b6040519080825280601f01601f1916602001820160405280156115bb576020820181803683370190505b5090505b8415611626576115d060018361208c565b91506115dd600a866120a3565b6115e890603061201b565b60f81b8183815181106115fd576115fd612033565b60200101906001600160f81b031916908160001a90535061161f600a86612078565b94506115bf565b949350505050565b600080546001600160a01b038381166001600160a01b0319831681178455604051919092169283917f8be0079c531659141344cd1fd0a4f28419497f9722a3daafe3b4186f6b6457e09190a35050565b600081815260046020526040812054606091036116e95760405162461bcd60e51b815260206004820152602360248201527f546f6b656e20646f6573206e6f74206861766520616e20454e532072656769736044820152623a32b960e91b6064820152608401610508565b600082815260046020908152604080832054835260058252918290208251808401845260088152676c696c6e6f756e7360c01b81840152925161172e93919201611e7f565b6040516020818303038152906040529050919050565b6001600160a01b03811681146112a257600080fd5b60006020828403121561176b57600080fd5b813561073a81611744565b60006020828403121561178857600080fd5b81356001600160e01b03198116811461073a57600080fd5b60008083601f8401126117b257600080fd5b5081356001600160401b038111156117c957600080fd5b6020830191508360208285010111156117e157600080fd5b9250929050565b60008060008060006060868803121561180057600080fd5b8535945060208601356001600160401b038082111561181e57600080fd5b61182a89838a016117a0565b9096509450604088013591508082111561184357600080fd5b50611850888289016117a0565b969995985093965092949392505050565b60006020828403121561187357600080fd5b5035919050565b60005b8381101561189557818101518382015260200161187d565b838111156118a4576000848401525b50505050565b600081518084526118c281602086016020860161187a565b601f01601f19169290920160200192915050565b60208152600061073a60208301846118aa565b6000806000604084860312156118fe57600080fd5b8335925060208401356001600160401b0381111561191b57600080fd5b611927868287016117a0565b9497909650939450505050565b6000806020838503121561194757600080fd5b82356001600160401b0381111561195d57600080fd5b611969858286016117a0565b90969095509350505050565b60008060006040848603121561198a57600080fd5b83356001600160401b038111156119a057600080fd5b6119ac868287016117a0565b909790965060209590950135949350505050565b634e487b7160e01b600052604160045260246000fd5b604051601f8201601f191681016001600160401b03811182821017156119fe576119fe6119c0565b604052919050565b60008060408385031215611a1957600080fd5b823591506020808401356001600160401b0380821115611a3857600080fd5b818601915086601f830112611a4c57600080fd5b813581811115611a5e57611a5e6119c0565b611a70601f8201601f191685016119d6565b91508082528784828501011115611a8657600080fd5b80848401858401376000848284010152508093505050509250929050565b60008060208385031215611ab757600080fd5b82356001600160401b0380821115611ace57600080fd5b818501915085601f830112611ae257600080fd5b813581811115611af157600080fd5b8660208260051b8501011115611b0657600080fd5b60209290920196919550909350505050565b60006020808385031215611b2b57600080fd5b82356001600160401b0380821115611b4257600080fd5b818501915085601f830112611b5657600080fd5b813581811115611b6857611b686119c0565b8060051b9150611b798483016119d6565b8181529183018401918481019088841115611b9357600080fd5b938501935b83851015611bb157843582529385019390850190611b98565b98975050505050505050565b6000602080830181845280855180835260408601915060408160051b870101925083870160005b82811015611c1257603f19888603018452611c008583516118aa565b94509285019290850190600101611be4565b5092979650505050505050565b600060208284031215611c3157600080fd5b815161073a81611744565b6020808252600e908201526d139bdd08185d5d1a1bdc9a5cd95960921b604082015260600190565b6020808252600f908201526e496e76616c6964206164647265737360881b604082015260600190565b8183823760009101908152919050565b600181811c90821680611cb157607f821691505b602082108103611cd157634e487b7160e01b600052602260045260246000fd5b50919050565b601f821115610c6a57600081815260208120601f850160051c81016020861015611cfe5750805b601f850160051c820191505b81811015611d1d57828155600101611d0a565b505050505050565b6001600160401b03831115611d3c57611d3c6119c0565b611d5083611d4a8354611c9d565b83611cd7565b6000601f841160018114611d845760008515611d6c5750838201355b600019600387901b1c1916600186901b178355611dde565b600083815260209020601f19861690835b82811015611db55786850135825560209485019460019092019101611d95565b5086821015611dd25760001960f88860031b161c19848701351681555b505060018560011b0183555b5050505050565b60208152816020820152818360408301376000818301604090810191909152601f909201601f19160101919050565b7f6569703135353a312f6572633732313a3078346231303730314266643742464581527f64633437643530353632623736623433366662423542644233422f0000000000602082015260008251611e7281603b85016020870161187a565b91909101603b0192915050565b6000808454611e8d81611c9d565b60018281168015611ea55760018114611eba57611ee9565b60ff1984168752821515830287019450611ee9565b8860005260208060002060005b85811015611ee05781548a820152908401908201611ec7565b50505082870194505b50601760f91b845286519250611f058382860160208a0161187a565b6305ccae8d60e31b939092019182019290925260050195945050505050565b600060208284031215611f3657600080fd5b8151801515811461073a57600080fd5b81516001600160401b03811115611f5f57611f5f6119c0565b611f7381611f6d8454611c9d565b84611cd7565b602080601f831160018114611fa85760008415611f905750858301515b600019600386901b1c1916600185901b178555611d1d565b600085815260208120601f198616915b82811015611fd757888601518255948401946001909101908401611fb8565b5085821015611ff55787850151600019600388901b60f8161c191681555b5050505050600190811b01905550565b634e487b7160e01b600052601160045260246000fd5b6000821982111561202e5761202e612005565b500190565b634e487b7160e01b600052603260045260246000fd5b60006001820161205b5761205b612005565b5060010190565b634e487b7160e01b600052601260045260246000fd5b60008261208757612087612062565b500490565b60008282101561209e5761209e612005565b500390565b6000826120b2576120b2612062565b50069056fe524060b540a9ca20b59a94f7b32d64ebdbeedc42dfdc7aac115003633593b492a26469706673582212209e6985c846c30784d110cb4f41b0ed4556d50c7629b3afccf8c98f6b5f67fbac64736f6c634300080f0033",
    "linkReferences": {}
  },
  "methodIdentifiers": {
    "addr(bytes32)": "3b3b57de",
    "domainHash()": "dfe86ac5",
    "domainLabel()": "bcbe0e3c",
    "domainMap(string)": "c074c3da",
    "getTokensDomains(uint256[])": "f5958ee8",
    "hashToDomainMap(bytes32)": "428cfb20",
    "hashToIdMap(bytes32)": "9741cbff",
    "name(bytes32)": "691f3431",
    "nextRegisterTimestamp(address)": "01660e58",
    "nft()": "47ccca02",
    "owner()": "8da5cb5b",
    "renounceOwnership()": "715018a6",
    "resetAddressForClaim(address)": "0119b626",
    "resetHash(uint256)": "b9def38f",
    "reset_period()": "a449329c",
    "setDomain(string,uint256)": "d890582f",
    "setText(bytes32,string,string)": "10f13a8c",
    "supportsInterface(bytes4)": "01ffc9a7",
    "text(bytes32,string)": "59d1d43c",
    "texts(bytes32,string)": "ea5822c6",
    "tokenHashmap(uint256)": "abcec0a2",
    "transferOwnership(address)": "f2fde38b",
    "updateAddresses(uint256[])": "f33135ff",
    "updateResetPeriod(uint256)": "df46d7a6"
  },
  "id": 6
}